{"abi":[{"type":"constructor","inputs":[],"stateMutability":"nonpayable"},{"type":"function","name":"canRevealNow","inputs":[{"name":"lotteryId","type":"uint256","internalType":"uint256"}],"outputs":[{"name":"canReveal","type":"bool","internalType":"bool"},{"name":"reason","type":"string","internalType":"string"}],"stateMutability":"view"},{"type":"function","name":"claimPrize","inputs":[{"name":"_lotteryId","type":"uint256","internalType":"uint256"},{"name":"_ticketIndex","type":"uint256","internalType":"uint256"},{"name":"_ticketSecret","type":"bytes","internalType":"bytes"}],"outputs":[],"stateMutability":"nonpayable"},{"type":"function","name":"closeCommitPeriod","inputs":[{"name":"_lotteryId","type":"uint256","internalType":"uint256"}],"outputs":[],"stateMutability":"nonpayable"},{"type":"function","name":"commitTicket","inputs":[{"name":"_lotteryId","type":"uint256","internalType":"uint256"},{"name":"_ticketIndex","type":"uint256","internalType":"uint256"},{"name":"_ticketSecretHash","type":"bytes32","internalType":"bytes32"}],"outputs":[],"stateMutability":"nonpayable"},{"type":"function","name":"createLottery","inputs":[{"name":"_creatorCommitment","type":"bytes32","internalType":"bytes32"},{"name":"_ticketSecretHashes","type":"bytes32[]","internalType":"bytes32[]"},{"name":"_prizeValues","type":"uint256[]","internalType":"uint256[]"},{"name":"_commitDeadline","type":"uint256","internalType":"uint256"},{"name":"_revealTime","type":"uint256","internalType":"uint256"},{"name":"_rolloverLotteryId","type":"uint256","internalType":"uint256"}],"outputs":[{"name":"lotteryId","type":"uint256","internalType":"uint256"}],"stateMutability":"payable"},{"type":"function","name":"finalizeLottery","inputs":[{"name":"_lotteryId","type":"uint256","internalType":"uint256"}],"outputs":[],"stateMutability":"nonpayable"},{"type":"function","name":"getLotteryCreator","inputs":[{"name":"lotteryId","type":"uint256","internalType":"uint256"}],"outputs":[{"name":"creator","type":"address","internalType":"address"},{"name":"creatorCommitment","type":"bytes32","internalType":"bytes32"}],"stateMutability":"view"},{"type":"function","name":"getLotteryPrizes","inputs":[{"name":"lotteryId","type":"uint256","internalType":"uint256"}],"outputs":[{"name":"totalPrizePool","type":"uint256","internalType":"uint256"},{"name":"prizeValues","type":"uint256[]","internalType":"uint256[]"}],"stateMutability":"view"},{"type":"function","name":"getLotteryReveal","inputs":[{"name":"lotteryId","type":"uint256","internalType":"uint256"}],"outputs":[{"name":"randomSeed","type":"uint256","internalType":"uint256"},{"name":"state","type":"uint8","internalType":"enum LotteryFactory.LotteryState"}],"stateMutability":"view"},{"type":"function","name":"getLotteryStatus","inputs":[{"name":"lotteryId","type":"uint256","internalType":"uint256"}],"outputs":[{"name":"state","type":"uint8","internalType":"enum LotteryFactory.LotteryState"},{"name":"commitDeadline","type":"uint256","internalType":"uint256"},{"name":"revealTime","type":"uint256","internalType":"uint256"},{"name":"claimDeadline","type":"uint256","internalType":"uint256"},{"name":"createdAt","type":"uint256","internalType":"uint256"}],"stateMutability":"view"},{"type":"function","name":"getLotteryTickets","inputs":[{"name":"lotteryId","type":"uint256","internalType":"uint256"}],"outputs":[{"name":"ticketSecretHashes","type":"bytes32[]","internalType":"bytes32[]"}],"stateMutability":"view"},{"type":"function","name":"getRandomnessBlock","inputs":[{"name":"lotteryId","type":"uint256","internalType":"uint256"}],"outputs":[{"name":"randomnessBlock","type":"uint256","internalType":"uint256"}],"stateMutability":"view"},{"type":"function","name":"getRolloverPool","inputs":[{"name":"lotteryId","type":"uint256","internalType":"uint256"}],"outputs":[{"name":"rolloverAmount","type":"uint256","internalType":"uint256"}],"stateMutability":"view"},{"type":"function","name":"getTotalRolloverPool","inputs":[],"outputs":[{"name":"totalRollover","type":"uint256","internalType":"uint256"}],"stateMutability":"view"},{"type":"function","name":"isClaimPeriodActive","inputs":[{"name":"lotteryId","type":"uint256","internalType":"uint256"}],"outputs":[{"name":"","type":"bool","internalType":"bool"}],"stateMutability":"view"},{"type":"function","name":"isCommitPeriodOpen","inputs":[{"name":"lotteryId","type":"uint256","internalType":"uint256"}],"outputs":[{"name":"","type":"bool","internalType":"bool"}],"stateMutability":"view"},{"type":"function","name":"isRevealReady","inputs":[{"name":"lotteryId","type":"uint256","internalType":"uint256"}],"outputs":[{"name":"","type":"bool","internalType":"bool"}],"stateMutability":"view"},{"type":"function","name":"lotteries","inputs":[{"name":"","type":"uint256","internalType":"uint256"}],"outputs":[{"name":"creator","type":"address","internalType":"address"},{"name":"creatorCommitment","type":"bytes32","internalType":"bytes32"},{"name":"totalPrizePool","type":"uint256","internalType":"uint256"},{"name":"commitDeadline","type":"uint256","internalType":"uint256"},{"name":"randomnessBlock","type":"uint256","internalType":"uint256"},{"name":"revealTime","type":"uint256","internalType":"uint256"},{"name":"claimDeadline","type":"uint256","internalType":"uint256"},{"name":"randomSeed","type":"uint256","internalType":"uint256"},{"name":"state","type":"uint8","internalType":"enum LotteryFactory.LotteryState"},{"name":"createdAt","type":"uint256","internalType":"uint256"},{"name":"sponsoredGasPool","type":"uint256","internalType":"uint256"},{"name":"sponsoredGasUsed","type":"uint256","internalType":"uint256"}],"stateMutability":"view"},{"type":"function","name":"lotteryCounter","inputs":[],"outputs":[{"name":"","type":"uint256","internalType":"uint256"}],"stateMutability":"view"},{"type":"function","name":"lotteryRolloverPool","inputs":[{"name":"","type":"uint256","internalType":"uint256"}],"outputs":[{"name":"","type":"uint256","internalType":"uint256"}],"stateMutability":"view"},{"type":"function","name":"refundLottery","inputs":[{"name":"_lotteryId","type":"uint256","internalType":"uint256"}],"outputs":[],"stateMutability":"nonpayable"},{"type":"function","name":"revealLottery","inputs":[{"name":"_lotteryId","type":"uint256","internalType":"uint256"},{"name":"_creatorSecret","type":"bytes","internalType":"bytes"}],"outputs":[],"stateMutability":"nonpayable"},{"type":"function","name":"tickets","inputs":[{"name":"","type":"uint256","internalType":"uint256"},{"name":"","type":"uint256","internalType":"uint256"}],"outputs":[{"name":"holder","type":"address","internalType":"address"},{"name":"committed","type":"bool","internalType":"bool"},{"name":"redeemed","type":"bool","internalType":"bool"},{"name":"prizeAmount","type":"uint256","internalType":"uint256"}],"stateMutability":"view"},{"type":"event","name":"CommitPeriodClosed","inputs":[{"name":"lotteryId","type":"uint256","indexed":true,"internalType":"uint256"},{"name":"randomnessBlock","type":"uint256","indexed":false,"internalType":"uint256"}],"anonymous":false},{"type":"event","name":"LotteryCreated","inputs":[{"name":"lotteryId","type":"uint256","indexed":true,"internalType":"uint256"},{"name":"creator","type":"address","indexed":true,"internalType":"address"},{"name":"totalPrizePool","type":"uint256","indexed":false,"internalType":"uint256"},{"name":"numberOfTickets","type":"uint256","indexed":false,"internalType":"uint256"},{"name":"commitDeadline","type":"uint256","indexed":false,"internalType":"uint256"},{"name":"revealTime","type":"uint256","indexed":false,"internalType":"uint256"}],"anonymous":false},{"type":"event","name":"LotteryRefunded","inputs":[{"name":"lotteryId","type":"uint256","indexed":true,"internalType":"uint256"},{"name":"creator","type":"address","indexed":true,"internalType":"address"},{"name":"amount","type":"uint256","indexed":false,"internalType":"uint256"}],"anonymous":false},{"type":"event","name":"LotteryRevealed","inputs":[{"name":"lotteryId","type":"uint256","indexed":true,"internalType":"uint256"},{"name":"randomSeed","type":"uint256","indexed":false,"internalType":"uint256"},{"name":"revealedAt","type":"uint256","indexed":false,"internalType":"uint256"}],"anonymous":false},{"type":"event","name":"PrizeClaimed","inputs":[{"name":"lotteryId","type":"uint256","indexed":true,"internalType":"uint256"},{"name":"ticketIndex","type":"uint256","indexed":true,"internalType":"uint256"},{"name":"winner","type":"address","indexed":false,"internalType":"address"},{"name":"grossPrize","type":"uint256","indexed":false,"internalType":"uint256"},{"name":"netPrize","type":"uint256","indexed":false,"internalType":"uint256"},{"name":"gasCost","type":"uint256","indexed":false,"internalType":"uint256"}],"anonymous":false},{"type":"event","name":"PrizesForfeited","inputs":[{"name":"lotteryId","type":"uint256","indexed":true,"internalType":"uint256"},{"name":"forfeitedAmount","type":"uint256","indexed":false,"internalType":"uint256"},{"name":"processedAt","type":"uint256","indexed":false,"internalType":"uint256"}],"anonymous":false},{"type":"event","name":"TicketCommitted","inputs":[{"name":"lotteryId","type":"uint256","indexed":true,"internalType":"uint256"},{"name":"ticketIndex","type":"uint256","indexed":true,"internalType":"uint256"},{"name":"holder","type":"address","indexed":false,"internalType":"address"}],"anonymous":false},{"type":"error","name":"ArrayLengthMismatch","inputs":[]},{"type":"error","name":"BlockhashExpired","inputs":[]},{"type":"error","name":"BlockhashUnavailable","inputs":[]},{"type":"error","name":"ClaimDeadlinePassed","inputs":[]},{"type":"error","name":"CommitDeadlinePassed","inputs":[]},{"type":"error","name":"CommitPeriodNotClosed","inputs":[]},{"type":"error","name":"EmptyPrizeArray","inputs":[]},{"type":"error","name":"EmptyTicketsArray","inputs":[]},{"type":"error","name":"InsufficientPrizePool","inputs":[]},{"type":"error","name":"InvalidCreatorSecret","inputs":[]},{"type":"error","name":"InvalidDeadlines","inputs":[]},{"type":"error","name":"InvalidLotteryState","inputs":[]},{"type":"error","name":"InvalidPrizeSum","inputs":[]},{"type":"error","name":"InvalidTicketIndex","inputs":[]},{"type":"error","name":"InvalidTicketSecret","inputs":[]},{"type":"error","name":"RandomnessBlockNotReached","inputs":[]},{"type":"error","name":"Reentrancy","inputs":[]},{"type":"error","name":"TicketAlreadyCommitted","inputs":[]},{"type":"error","name":"TicketAlreadyRedeemed","inputs":[]},{"type":"error","name":"TicketNotCommitted","inputs":[]},{"type":"error","name":"UnauthorizedCaller","inputs":[]}],"bytecode":{"object":"0x608060405234801561000f575f80fd5b5060015f55611d31806100215f395ff3fe60806040526004361061013c575f3560e01c8063a33f6b3e116100b3578063c3d6e0231161006d578063c3d6e02314610521578063cfc4d6e214610534578063ea7f7a5914610560578063f203b0371461057f578063f9aa8844146105aa578063ffb31bc0146105d7575f80fd5b8063a33f6b3e146103bb578063a374e43f146103da578063a7351f6014610468578063af8d4446146104c4578063b0ae48cb146104e3578063be31556f14610502575f80fd5b8063512188bc11610104578063512188bc1461029557806363d4bb7e146102c05780637a25e041146102e15780638ff722931461030057806397b6f351146103605780639af3b7051461038e575f80fd5b8063080430a6146101405780631398e0761461017457806318d3557b14610215578063438b70c0146102375780634a4a6b4f14610281575b5f80fd5b34801561014b575f80fd5b5061015f61015a36600461183b565b6105f6565b60405190151581526020015b60405180910390f35b34801561017f575f80fd5b506101fd61018e36600461183b565b600160208190525f9182526040909120805491810154600282015460058301546006840154600785015460088601546009870154600a880154600b890154600c8a0154600d909a01546001600160a01b03909b169a989997989697959694959394929360ff909216929091908c565b60405161016b9c9b9a99989796959493929190611886565b348015610220575f80fd5b50610229610646565b60405190815260200161016b565b348015610242575f80fd5b5061027361025136600461183b565b5f9081526001602052604090206009810154600a90910154909160ff90911690565b60405161016b9291906118f7565b34801561028c575f80fd5b506102295f5481565b3480156102a0575f80fd5b506102296102af36600461183b565b60036020525f908152604090205481565b3480156102cb575f80fd5b506102df6102da36600461190b565b610683565b005b3480156102ec575f80fd5b506102df6102fb36600461183b565b610828565b34801561030b575f80fd5b5061034f61031a36600461183b565b5f908152600160205260409020600a810154600582015460078301546008840154600b9094015460ff90931694919390929091565b60405161016b959493929190611934565b34801561036b575f80fd5b5061022961037a36600461183b565b5f9081526001602052604090206006015490565b348015610399575f80fd5b506103ad6103a836600461183b565b61099f565b60405161016b929190611964565b3480156103c6575f80fd5b506102df6103d53660046119fe565b610ade565b3480156103e5575f80fd5b506104386103f4366004611a46565b600260209081525f9283526040808420909152908252902080546001909101546001600160a01b0382169160ff600160a01b8204811692600160a81b909204169084565b604080516001600160a01b039095168552921515602085015290151591830191909152606082015260800161016b565b348015610473575f80fd5b506104a561048236600461183b565b5f90815260016020819052604090912080549101546001600160a01b0390911691565b604080516001600160a01b03909316835260208301919091520161016b565b3480156104cf575f80fd5b506102df6104de36600461183b565b610cbd565b3480156104ee575f80fd5b5061015f6104fd36600461183b565b610d84565b34801561050d575f80fd5b506102df61051c366004611a66565b610dc1565b61022961052f366004611af6565b6110a6565b34801561053f575f80fd5b5061055361054e36600461183b565b6112b8565b60405161016b9190611b80565b34801561056b575f80fd5b506102df61057a36600461183b565b61131a565b34801561058a575f80fd5b5061022961059936600461183b565b5f9081526003602052604090205490565b3480156105b5575f80fd5b506105c96105c436600461183b565b611481565b60405161016b929190611bc3565b3480156105e2575f80fd5b5061015f6105f136600461183b565b6114fb565b5f8181526001602052604081206002600a82015460ff16600481111561061e5761061e611852565b14801561062f575080600701544210155b801561063f575080600601544310155b9392505050565b5f60015b5f5481101561067f575f8181526003602052604090205461066b9083611c23565b91508061067781611c3c565b91505061064a565b5090565b5f838152600160205260409020600581015442106106b45760405163275eb69d60e01b815260040160405180910390fd5b600481015483106106d8576040516331de484760e01b815260040160405180910390fd5b818160040184815481106106ee576106ee611c54565b905f5260205f2001541461071557604051632a87c2f560e11b815260040160405180910390fd5b5f848152600260209081526040808320868452909152902054600160a01b900460ff16156107565760405163a92a49cd60e01b815260040160405180910390fd5b6040805160808101825233808252600160208084018281525f858701818152606087018281528c8352600285528883208c84529094529087902095518654925191511515600160a81b0260ff60a81b19921515600160a01b026001600160a81b03199094166001600160a01b0392909216919091179290921716178455519201919091559051849186917f66106b256390fbf93971ac5e993eee27c48c11a6c3f79336a3dc04d9042a5a189161081a916001600160a01b0391909116815260200190565b60405180910390a350505050565b5f8181526001602052604090206002600a82015460ff16600481111561085057610850611852565b1461086e576040516325fe805760e01b815260040160405180910390fd5b60078101546108809062015180611c23565b421161089f57604051633779f67b60e11b815260040160405180910390fd5b60028101548154600a8301805460ff191660041790556040516001600160a01b03909116905f90829084908381818185875af1925050503d805f8114610900576040519150601f19603f3d011682016040523d82523d5f602084013e610905565b606091505b50509050806109545760405162461bcd60e51b81526020600482015260166024820152751499599d5b99081d1c985b9cd9995c8819985a5b195960521b60448201526064015b60405180910390fd5b816001600160a01b0316857f1722bcb7a4212f2f9283a7081ee4cd6742f270e641db93d6dcd9089c472446578560405161099091815260200190565b60405180910390a35050505050565b5f8181526001602052604081206060906002600a82015460ff1660048111156109ca576109ca611852565b14610a10575f6040518060400160405280601881526020017f436f6d6d697420706572696f64206e6f7420636c6f73656400000000000000008152509250925050915091565b8060060154431015610a5d575f6040518060400160405280601c81526020017f52616e646f6d6e65737320626c6f636b206e6f742072656163686564000000008152509250925050915091565b6006810154610a6e90610100611c23565b431115610aaa575f60405180604001604052806011815260200170109b1bd8dada185cda08195e1c1a5c9959607a1b8152509250925050915091565b60016040518060400160405280600f81526020016e149958591e481d1bc81c995d99585b608a1b8152509250925050915091565b5f83815260016020526040902080546001600160a01b03163314610b1557604051635c427cd960e01b815260040160405180910390fd5b6002600a82015460ff166004811115610b3057610b30611852565b14610b4e576040516325fe805760e01b815260040160405180910390fd5b8060070154421015610b7357604051633779f67b60e11b815260040160405180910390fd5b8060060154431015610b985760405163cce12e0d60e01b815260040160405180910390fd5b6006810154610ba990610100611c23565b431115610bc95760405163c212ef7d60e01b815260040160405180910390fd5b5f8383604051610bda929190611c68565b6040518091039020905081600101548114610c08576040516332be2c1960e11b815260040160405180910390fd5b60068201544080610c2c5760405163492aae0760e11b815260040160405180910390fd5b848482604051602001610c4193929190611c77565b60408051601f1981840301815291905280516020909101206009840155610c6786611537565b600a8301805460ff1916600317905560098301546040805191825242602083015287917f92c03a154e7a6cd04c3911af3510858259430b2c9ecb6a0f22503c366140063a910160405180910390a2505050505050565b5f81815260016020819052604090912090600a82015460ff166004811115610ce757610ce7611852565b14610d05576040516325fe805760e01b815260040160405180910390fd5b8060050154421015610d2a57604051633779f67b60e11b815260040160405180910390fd5b610d35436014611c23565b60068201819055600a8201805460ff1916600217905560405190815282907fc826b929d8a9b3533978991d29c6aea40c42c415956541b4e3c0a10734f66c7f9060200160405180910390a25050565b5f818152600160208190526040822090600a82015460ff166004811115610dad57610dad611852565b14801561063f575060050154421092915050565b3068929eee149b4bd212685403610ddf5763ab143c065f526004601cfd5b3068929eee149b4bd21268555f848152600160209081526040808320600283528184208785529092529091206003600a83015460ff166004811115610e2657610e26611852565b14610e44576040516325fe805760e01b815260040160405180910390fd5b8054600160a01b900460ff16610e6d57604051632e182f1360e21b815260040160405180910390fd5b5f8484604051610e7e929190611c68565b6040518091039020905080836004018781548110610e9e57610e9e611c54565b905f5260205f20015414610ec557604051632a87c2f560e11b815260040160405180910390fd5b8154600160a81b900460ff1615610eef576040516301faedd760e61b815260040160405180910390fd5b60018201545f610f013a61c350611c89565b90505f610f0e8284611ca0565b855460ff60a81b1916600160a81b1786556040519091505f90339083908381818185875af1925050503d805f8114610f61576040519150601f19603f3d011682016040523d82523d5f602084013e610f66565b606091505b5050905080610fb75760405162461bcd60e51b815260206004820152601960248201527f5472616e7366657220746f2077696e6e6572206661696c656400000000000000604482015260640161094b565b6040515f90329085908381818185875af1925050503d805f8114610ff6576040519150601f19603f3d011682016040523d82523d5f602084013e610ffb565b606091505b50509050806110405760405162461bcd60e51b815260206004820152601160248201527011d85cc81c99599d5b990819985a5b1959607a1b604482015260640161094b565b6040805133815260208101879052908101849052606081018590528b908d907fbf78ff3694ea9688cfca53c8530b2d3522190dbb75a2d405df65e5e5c8aff44c9060800160405180910390a350505050505050503868929eee149b4bd212685550505050565b5f8481036110c75760405163654fd11b60e11b815260040160405180910390fd5b5f8790036110e857604051631f320c4f60e31b815260040160405180910390fd5b5f805b8681101561112b5787878281811061110557611105611c54565b90506020020135826111179190611c23565b91508061112381611c3c565b9150506110eb565b505f831561116357505f838152600360205260409020548015611163576111528183611c23565b5f8581526003602052604081205591505b8161116e8234611c23565b1461118c57604051630b758fd760e31b815260040160405180910390fd5b8486106111ac57604051630a716d6d60e41b815260040160405180910390fd5b5f6111ba8662015180611c23565b5f805495509091508490806111ce83611c3c565b90915550505f84815260016020819052604090912080546001600160a01b031916331781559081018d90556002810184905561120e600382018b8b6117e7565b5061121d600482018d8d6117e7565b50600581018890555f600682018190556007820188905560088201839055600a8201805460ff1916600117905542600b830155600c8201819055600d82015560408051858152602081018d905290810189905260608101889052339086907f3456e700f8c6fb85f9b45c59c68094a57691f02246dabec0a4e229b2537e82a99060800160405180910390a35050505098975050505050505050565b5f8181526001602090815260409182902060040180548351818402810184019094528084526060939283018282801561130e57602002820191905f5260205f20905b8154815260200190600101908083116112fa575b50505050509050919050565b5f8181526001602052604090206003600a82015460ff16600481111561134257611342611852565b14611360576040516325fe805760e01b815260040160405180910390fd5b806008015442101561138557604051633779f67b60e11b815260040160405180910390fd5b60048101545f90815b81811015611408575f85815260026020908152604080832084845290915290208054600160a01b900460ff1680156113c957505f8160010154115b80156113de57508054600160a81b900460ff16155b156113f55760018101546113f29085611c23565b93505b508061140081611c3c565b91505061138e565b508115611432575f848152600360205260408120805484929061142c908490611c23565b90915550505b600a8301805460ff191660041790556040805183815242602082015285917f13795b7519a6695d37562d28e263960f7e8006010863a6d5fee0ba7a196e73e7910160405180910390a250505050565b5f60605f60015f8581526020019081526020015f209050806002015481600301808054806020026020016040519081016040528092919081815260200182805480156114ea57602002820191905f5260205f20905b8154815260200190600101908083116114d6575b505050505090509250925050915091565b5f8181526001602052604081206003600a82015460ff16600481111561152357611523611852565b14801561063f575060080154421092915050565b5f8181526001602052604081209061154e836116bf565b80519091505f5b60038401548110156116b857815f036115b05783600301818154811061157d5761157d611c54565b905f5260205f20015460035f8781526020019081526020015f205f8282546115a59190611c23565b909155506116a69050565b5f8460090154826040516020016115d1929190918252602082015260400190565b60408051601f19818403018152919052805160209091012090505f6115f68483611cb3565b90505f85828151811061160b5761160b611c54565b6020026020010151905086600301848154811061162a5761162a611c54565b5f9182526020808320909101548a8352600282526040808420858552909252912060019081019190915586906116609087611ca0565b8151811061167057611670611c54565b602002602001015186838151811061168a5761168a611c54565b60209081029190910101528461169f81611cd2565b9550505050505b806116b081611c3c565b915050611555565b5050505050565b5f8181526001602052604081206004810154606092805b82811015611726575f868152600260209081526040808320848452909152902054600160a01b900460ff1615611714578161171081611c3c565b9250505b8061171e81611c3c565b9150506116d6565b508067ffffffffffffffff81111561174057611740611ce7565b604051908082528060200260200182016040528015611769578160200160208202803683370190505b5093505f805b838110156117dd575f878152600260209081526040808320848452909152902054600160a01b900460ff16156117cb57808683815181106117b2576117b2611c54565b6020908102919091010152816117c781611c3c565b9250505b806117d581611c3c565b91505061176f565b5050505050919050565b828054828255905f5260205f20908101928215611820579160200282015b82811115611820578235825591602001919060010190611805565b5061067f9291505b8082111561067f575f8155600101611828565b5f6020828403121561184b575f80fd5b5035919050565b634e487b7160e01b5f52602160045260245ffd5b6005811061188257634e487b7160e01b5f52602160045260245ffd5b9052565b5f6101808201905060018060a01b038e1682528c60208301528b60408301528a60608301528960808301528860a08301528760c08301528660e08301526118d1610100830187611866565b8461012083015283610140830152826101608301529d9c50505050505050505050505050565b8281526040810161063f6020830184611866565b5f805f6060848603121561191d575f80fd5b505081359360208301359350604090920135919050565b60a081016119428288611866565b8560208301528460408301528360608301528260808301529695505050505050565b82151581525f602060408184015283518060408501525f5b818110156119985785810183015185820160600152820161197c565b505f606082860101526060601f19601f830116850101925050509392505050565b5f8083601f8401126119c9575f80fd5b50813567ffffffffffffffff8111156119e0575f80fd5b6020830191508360208285010111156119f7575f80fd5b9250929050565b5f805f60408486031215611a10575f80fd5b83359250602084013567ffffffffffffffff811115611a2d575f80fd5b611a39868287016119b9565b9497909650939450505050565b5f8060408385031215611a57575f80fd5b50508035926020909101359150565b5f805f8060608587031215611a79575f80fd5b8435935060208501359250604085013567ffffffffffffffff811115611a9d575f80fd5b611aa9878288016119b9565b95989497509550505050565b5f8083601f840112611ac5575f80fd5b50813567ffffffffffffffff811115611adc575f80fd5b6020830191508360208260051b85010111156119f7575f80fd5b5f805f805f805f8060c0898b031215611b0d575f80fd5b88359750602089013567ffffffffffffffff80821115611b2b575f80fd5b611b378c838d01611ab5565b909950975060408b0135915080821115611b4f575f80fd5b50611b5c8b828c01611ab5565b999c989b5096999698976060880135976080810135975060a0013595509350505050565b602080825282518282018190525f9190848201906040850190845b81811015611bb757835183529284019291840191600101611b9b565b50909695505050505050565b5f60408201848352602060408185015281855180845260608601915082870193505f5b81811015611c0257845183529383019391830191600101611be6565b5090979650505050505050565b634e487b7160e01b5f52601160045260245ffd5b80820180821115611c3657611c36611c0f565b92915050565b5f60018201611c4d57611c4d611c0f565b5060010190565b634e487b7160e01b5f52603260045260245ffd5b818382375f9101908152919050565b82848237909101908152602001919050565b8082028115828204841417611c3657611c36611c0f565b81810381811115611c3657611c36611c0f565b5f82611ccd57634e487b7160e01b5f52601260045260245ffd5b500690565b5f81611ce057611ce0611c0f565b505f190190565b634e487b7160e01b5f52604160045260245ffdfea2646970667358221220afe82a0431e2bb394c0a60ff1060f6a36fee3a568c87e07b56ac69b69775e2ca64736f6c63430008140033","linkReferences":{}},"methodIdentifiers":{"canRevealNow(uint256)":"9af3b705","claimPrize(uint256,uint256,bytes)":"be31556f","closeCommitPeriod(uint256)":"af8d4446","commitTicket(uint256,uint256,bytes32)":"63d4bb7e","createLottery(bytes32,bytes32[],uint256[],uint256,uint256,uint256)":"c3d6e023","finalizeLottery(uint256)":"ea7f7a59","getLotteryCreator(uint256)":"a7351f60","getLotteryPrizes(uint256)":"f9aa8844","getLotteryReveal(uint256)":"438b70c0","getLotteryStatus(uint256)":"8ff72293","getLotteryTickets(uint256)":"cfc4d6e2","getRandomnessBlock(uint256)":"97b6f351","getRolloverPool(uint256)":"f203b037","getTotalRolloverPool()":"18d3557b","isClaimPeriodActive(uint256)":"ffb31bc0","isCommitPeriodOpen(uint256)":"b0ae48cb","isRevealReady(uint256)":"080430a6","lotteries(uint256)":"1398e076","lotteryCounter()":"4a4a6b4f","lotteryRolloverPool(uint256)":"512188bc","refundLottery(uint256)":"7a25e041","revealLottery(uint256,bytes)":"a33f6b3e","tickets(uint256,uint256)":"a374e43f"},"id":22}